{
  "contractName": "Voating",
  "abi": [
    {
      "constant": false,
      "inputs": [],
      "name": "vote_applicant_1",
      "outputs": [],
      "payable": false,
      "stateMutability": "nonpayable",
      "type": "function"
    },
    {
      "constant": false,
      "inputs": [],
      "name": "vote_applicant_2",
      "outputs": [],
      "payable": false,
      "stateMutability": "nonpayable",
      "type": "function"
    },
    {
      "constant": true,
      "inputs": [],
      "name": "get_applicant_1_data",
      "outputs": [
        {
          "name": "",
          "type": "uint256"
        }
      ],
      "payable": false,
      "stateMutability": "view",
      "type": "function"
    },
    {
      "constant": true,
      "inputs": [],
      "name": "get_applicant_2_data",
      "outputs": [
        {
          "name": "",
          "type": "uint256"
        }
      ],
      "payable": false,
      "stateMutability": "view",
      "type": "function"
    },
    {
      "constant": false,
      "inputs": [
        {
          "name": "value",
          "type": "uint256"
        }
      ],
      "name": "change_vote_1",
      "outputs": [],
      "payable": false,
      "stateMutability": "nonpayable",
      "type": "function"
    },
    {
      "constant": false,
      "inputs": [
        {
          "name": "value",
          "type": "uint256"
        }
      ],
      "name": "change_vote_2",
      "outputs": [],
      "payable": false,
      "stateMutability": "nonpayable",
      "type": "function"
    }
  ],
  "bytecode": "0x608060405260008055600060015534801561001957600080fd5b506101e5806100296000396000f3fe608060405260043610610078576000357c0100000000000000000000000000000000000000000000000000000000900463ffffffff1680630e01317b1461007d5780630ffc32ae1461009457806351028be5146100bf57806358e2243d146100ea578063ab1c137714610125578063ffafa2aa14610160575b600080fd5b34801561008957600080fd5b50610092610177565b005b3480156100a057600080fd5b506100a9610184565b6040518082815260200191505060405180910390f35b3480156100cb57600080fd5b506100d461018d565b6040518082815260200191505060405180910390f35b3480156100f657600080fd5b506101236004803603602081101561010d57600080fd5b8101908080359060200190929190505050610197565b005b34801561013157600080fd5b5061015e6004803603602081101561014857600080fd5b81019080803590602001909291905050506101a1565b005b34801561016c57600080fd5b506101756101ab565b005b6001805401600181905550565b60008054905090565b6000600154905090565b8060008190555050565b8060018190555050565b60016000540160008190555056fea165627a7a72305820351ef3c18f33c94519c84ff68269b0061a28b3334909d6aeb3a19f618dabaa060029",
  "source": "// SPDX-License-Identifier: MIT\r\npragma solidity >=0.5.0 <0.9.0;\r\n\r\ncontract Voating {\r\n \r\n  uint applicant_1=0;\r\n  uint applicant_2=0;\r\n\r\n  function vote_applicant_1() public {\r\n    applicant_1=applicant_1+1;\r\n  }\r\n  \r\n  \r\n   function vote_applicant_2() public {\r\n    applicant_2=applicant_2+1;\r\n  }\r\n\r\n  function get_applicant_1_data() public view returns (uint) {\r\n    return applicant_1;\r\n  }\r\n  \r\n  function get_applicant_2_data() public view returns (uint) {\r\n    return applicant_2;\r\n  }\r\n  \r\n  function change_vote_1(uint value) public {\r\n    applicant_1=value;\r\n  }\r\n  \r\n  \r\n   function change_vote_2(uint value) public {\r\n    applicant_2=value;\r\n  }\r\n  \r\n  \r\n  \r\n}",
  "sourcePath": "D:\\Blockchain\\My-Dapp-Voating-app\\contracts\\Voating.sol",
  "compiler": {
    "name": "solc",
    "version": "0.5.0+commit.1d4f565a.Emscripten.clang"
  },
  "schemaVersion": "3.4.3",
  "updatedAt": "2021-11-26T14:07:47.749Z",
  "networkType": "ethereum",
  "devdoc": {
    "methods": {}
  },
  "userdoc": {
    "methods": {}
  }
}